{
  "contractName": "HelloToken",
  "abi": [
    {
      "inputs": [],
      "stateMutability": "nonpayable",
      "type": "constructor"
    },
    {
      "inputs": [],
      "name": "name",
      "outputs": [
        {
          "internalType": "string",
          "name": "",
          "type": "string"
        }
      ],
      "stateMutability": "view",
      "type": "function"
    },
    {
      "inputs": [],
      "name": "nextTokenId",
      "outputs": [
        {
          "internalType": "uint256",
          "name": "",
          "type": "uint256"
        }
      ],
      "stateMutability": "view",
      "type": "function"
    },
    {
      "inputs": [
        {
          "internalType": "uint256",
          "name": "amount",
          "type": "uint256"
        }
      ],
      "name": "mint",
      "outputs": [
        {
          "internalType": "uint256",
          "name": "",
          "type": "uint256"
        }
      ],
      "stateMutability": "nonpayable",
      "type": "function"
    },
    {
      "inputs": [
        {
          "internalType": "uint256",
          "name": "tokenId",
          "type": "uint256"
        }
      ],
      "name": "getData",
      "outputs": [
        {
          "internalType": "uint256",
          "name": "",
          "type": "uint256"
        }
      ],
      "stateMutability": "view",
      "type": "function"
    }
  ],
  "bytecode": "0x60c0604052600a6080819052692432b63637aa37b5b2b760b11b60a090815261002b9160009190610043565b50600060015534801561003d57600080fd5b506100de565b828054600181600116156101000203166002900490600052602060002090601f016020900481019282601f1061008457805160ff19168380011785556100b1565b828001600101855582156100b1579182015b828111156100b1578251825591602001919060010190610096565b506100bd9291506100c1565b5090565b6100db91905b808211156100bd57600081556001016100c7565b90565b61022f806100ed6000396000f3fe608060405234801561001057600080fd5b506004361061004c5760003560e01c80630178fe3f1461005157806306fdde031461008057806375794a3c146100fd578063a0712d6814610105575b600080fd5b61006e6004803603602081101561006757600080fd5b5035610122565b60408051918252519081900360200190f35b610088610134565b6040805160208082528351818301528351919283929083019185019080838360005b838110156100c25781810151838201526020016100aa565b50505050905090810190601f1680156100ef5780820380516001836020036101000a031916815260200191505b509250505060405180910390f35b61006e6101c2565b61006e6004803603602081101561011b57600080fd5b50356101c8565b60009081526002602052604090205490565b6000805460408051602060026001851615610100026000190190941693909304601f810184900484028201840190925281815292918301828280156101ba5780601f1061018f576101008083540402835291602001916101ba565b820191906000526020600020905b81548152906001019060200180831161019d57829003601f168201915b505050505081565b60015481565b6000806101d36101ec565b6000818152600260205260409020849055915050919050565b600180548082019091559056fea264697066735822122052a3495605d05043905ee88cb121184aa8a9a81a946d76b8978eee80712011d264736f6c634300060b0033",
  "immutableReferences": {},
  "source": "pragma solidity ^0.6.11;\n\ncontract HelloToken {\n    string public name = 'HelloToken';\n\n    uint256 public nextTokenId = 0;\n\n    mapping(uint256 => uint256) private _dataStorage;\n\n    constructor() public {}\n\n    function _generate() internal returns (uint256) {\n        uint256 tokenId = nextTokenId;\n        nextTokenId = nextTokenId + 1;\n        return tokenId;\n    }\n\n    function mint(\n        uint256 amount\n    ) public returns (uint256) {\n        uint256 tokenId = _generate();\n        _dataStorage[tokenId] = amount;\n        return tokenId;\n    }\n\n    function getData(uint256 tokenId) public view returns (uint256) {\n        return _dataStorage[tokenId];\n    }\n}\n\n// SPDX-License-Identifier: MIT\n",
  "sourcePath": "/Users/user/tmp/hello-token/contracts/HelloToken.sol",
  "compiler": {
    "name": "solc",
    "version": "0.6.11+commit.5ef660b1.Emscripten.clang"
  },
  "schemaVersion": "3.2.2",
  "updatedAt": "2020-07-22T04:08:26.199Z",
  "devdoc": {
    "kind": "dev",
    "methods": {},
    "version": 1
  },
  "userdoc": {
    "kind": "user",
    "methods": {},
    "version": 1
  }
}